:100000000C944E000C9476000C9476000C947600C0
:100010000C9476000C9476000C9476000C94760088
:100020000C9476000C9476000C9476000C94760078
:100030000C9476000C9476000C9476000C94760068
:100040000C9498020C9476000C9418030C9476008F
:100050000C94EF020C9476000C9476000C947600CD
:100060000C9476000C947600010204081020408065
:100070000102040810200102040810200000000002
:1000800023002600290004040404040404040202DA
:10009000020202020303030303034A0611241FBEE4
:1000A000CFEFD8E0DEBFCDBF11E0A0E0B1E0E6E6E3
:1000B000F3E102C005900D92A037B107D9F722E015
:1000C000A0E7B1E001C01D92A731B207E1F710E04F
:1000D000CEE4D0E004C02197FE010E94AB09CD34EC
:1000E000D107C9F70E944A030C94B1090C9400008F
:1000F0008091C00085FFFCCF90911602809115027F
:10010000981789F0E0911502F0E0EB50FE4F9081D6
:10011000809115028F5F80931502803210F010924B
:1001200015029093C6000895909116029F31C8F46D
:10013000909116029F5F292F30E02F5F3F4F409133
:10014000150242171306D9F320911502921741F0B8
:10015000E0911602F0E0EB50FE4F80839093160280
:10016000089590E0E8CF8DE00E9494008AE00E941C
:1001700094000C9478000F931F93CF938C01C0E0F0
:10018000F801EC0FF11D8081882331F00E9494006A
:100190000E947800CF5FF4CFCF911F910F91089507
:1001A0003FB7F8948091B5019091B601A091B70145
:1001B000B091B80126B5A89B05C02F3F19F0019654
:1001C000A11DB11D3FBFBA2FA92F982F8827BC01B1
:1001D000CD01620F711D811D911D42E0660F771FD9
:1001E000881F991F4A95D1F708952FB7F894609109
:1001F000B1017091B2018091B3019091B4012FBF10
:1002000008958F929F92AF92BF92CF92DF92EF921A
:10021000FF920F931F938091DF0182FD18C085FD2F
:1002200016C0E091F201F091F30120813091F401C8
:1002300081FB992790F983FB882780F98927922FE2
:10024000932321E009F020E082278093F0010E94AF
:10025000F500AB01BC019091F0012091F10180917A
:10026000DE01992309F4A5C02111A3C080FD7FC040
:1002700081608093DE014093EC015093ED01609327
:10028000EE017093EF018091F101882389F19923A8
:1002900079F10091E3011091E40130E020E0C09099
:1002A000EC01D090ED01E090EE01F090EF014A01F9
:1002B0005B018C189D08AE08BF0875016401C0166B
:1002C000D106E206F306A0F08091DE0181FD10C0A8
:1002D0002091E9012093EB018A648F778093DE01FE
:1002E0004093EC015093ED016093EE017093EF01A8
:1002F0000091EC011091ED012091EE013091EF01A0
:10030000401B510B620B730B0091E5011091E6014C
:1003100030E020E0401751076207730778F08091C2
:10032000E901882359F0911109C08093EA011092E4
:10033000E9018091DE0184608093DE018091DF011C
:1003400086FF0AC01092EA019091DE019B7F909394
:10035000DE018F7B8093DF011F910F91FF90EF9063
:10036000DF90CF90BF90AF909F908F9008950091B5
:10037000EC011091ED012091EE013091EF016A0145
:100380007B01C01AD10AE20AF30A0091E10110913F
:10039000E20130E020E0C016D106E206F30608F4E0
:1003A000A7CF21E02093F101806280688093DE0175
:1003B0006ACF8E7F8093DE01911165CF222309F4ED
:1003C00097CF1092F10181FD05C08091E9018F5F07
:1003D0008093E9018091DE018D7F80618093DE0151
:1003E0004093EC015093ED016093EE017093EF01A7
:1003F00086FF07C01092EA011092E9018F7B80937B
:10040000DE018091DE0187FF73CF8F778093DE015D
:100410008091DF0181608093DF0135CF8F929F92C1
:10042000AF92BF92CF92DF92EF92FF921F93CF9342
:10043000DF93CDB7DEB72A970FB6F894DEBF0FBEB5
:10044000CDBF6B017C01F7FE0BC08DE20E949400D2
:10045000F094E094D094C094C11CD11CE11CF11C18
:10046000C701B6019E012F5F3F4F690110E079017E
:100470002AE0822E912CA12CB12CA50194010E947E
:10048000AA08F60161936F01B901CA0161157105EE
:100490008105910521F01F5F1A3079F710E0F7010F
:1004A000E10FF11D17FDFA958081805D0E94940097
:1004B0001150A8F72A960FB6F894DEBF0FBECDBF35
:1004C000DF91CF911F91FF90EF90DF90CF90BF9081
:1004D000AF909F908F900895CF93DF93EC0184E0CD
:1004E00091E00E94BB00BE01DD0F880B990B0E94BA
:1004F0000E02DF91CF910C94B300CF93DF93EB0109
:10050000181619064CF42AE0AC01249FC001259F5F
:10051000900D11240E946C021C161D061CF4CE01C5
:100520000E946C028AEE93E0DF91CF910C946C02F2
:100530001F920F920FB60F9211248F939F93AF9338
:10054000BF938091B1019091B201A091B301B0919C
:10055000B4010196A11DB11D8093B1019093B20128
:10056000A093B301B093B4018091B00193E0980FD0
:100570009D37F0F49093B0018091B5019091B60150
:10058000A091B701B091B8010196A11DB11D809352
:10059000B5019093B601A093B701B093B801BF9194
:1005A000AF919F918F910F900FBE0F901F90189554
:1005B0008A578093B0018091B1019091B201A091CE
:1005C000B301B091B4010196A11DB11D8093B10199
:1005D0009093B201A093B301B093B401CDCF1F9219
:1005E0000F920FB60F9211248F939F93EF93FF9367
:1005F0009091160280911502981789F0E0911502EA
:10060000F0E0EB50FE4F9081809115028F5F809358
:100610001502803210F0109215029093C600FF91DF
:10062000EF919F918F910F900FBE0F901F90189593
:100630001F920F920FB60F9211242F938F939F93B7
:10064000EF93FF938091C00082FF0CC08091C600A1
:10065000FF91EF919F918F912F910F900FBE0F906F
:100660001F9018959091C6008091B9018F3380F446
:100670008091B9018F5F2091BA01281749F3E09169
:10068000B901F0E0E059FE4F90838093B901E0CFCB
:1006900080E0F1CFCF93DF93CDB7DEB7F89482E857
:1006A00080937A0083E084BD85BD80916E00816077
:1006B00080936E0081E0809380009BE090938100A6
:1006C0008093B00084E08093B1001092C1007894D0
:1006D0001092C50080E18093C40082E08093C00046
:1006E00088ED8093C10086E08093C2001092BA0129
:1006F0001092B90110921502109216020E94D000B9
:100700002B013C0130EAC32E3FE0D32EE12CF12C2B
:100710000E94D0006419750986099709683E7340E4
:1007200081059105A8F331E0C31AD108E108F10869
:1007300068EE460E63E0561E611C711CC114D104A4
:10074000E104F10429F78EE191E00E94BB000E94D0
:10075000B30080E480937C0080917A008064809371
:100760007A0080917A0086FDFCCF609178007091CC
:10077000790090E080E0611571058105910511F027
:100780000E944B0782E390E09093E2018093E101A5
:10079000539A5B9852985A9855985D9854985C9AD9
:1007A0008AE097EDA3E2BCE38093BB019093BC0188
:1007B000A093BD01B093BE018AE090E09093C80180
:1007C0008093C7010E94F5006093D6017093D70112
:1007D0008093D8019093D9010E94F5000E940101F5
:1007E0008091DF0184FD0E9401018091DE0185FF7F
:1007F0000BC18F7D8093DE0120E030E04AE755E4B5
:100800006091DA017091DB018091DC019091DD0152
:100810000E947E09181664F480E090E0AAE7B5E42F
:100820008093DA019093DB01A093DC01B093DD01AA
:1008300020E030E040EF51E46091DA017091DB019B
:100840008091DC019091DD010E94540787FF0CC06C
:1008500080E090E0A0EFB1E48093DA019093DB01B7
:10086000A093DC01B093DD016091DA017091DB01AE
:100870008091DC019091DD010E9448096B013B01F0
:100880002DB63EB68CE391E00E94BB000E94B300FF
:10089000B6010D2C000C880B990B0E940E020E94D1
:1008A000B300C601F12CE12C181619064CF46AE0CD
:1008B00070E00E948309CB017FEFE71AF70AF4CFBB
:1008C000A70141505109C701880F991FADB7BEB7A5
:1008D000A81BB90B0FB6F894BEBF0FBEADBF0DB7C6
:1008E0001EB70F5F1F4F90E080E021E030E0411520
:1008F0005105D1F421E030E028016801F0E0E0E0AA
:10090000EE15FF05E9F0C301B9010E9483093C011E
:10091000D6016D937D936D01C9016AE070E00E947C
:1009200083099B013196ECCF841795072CF76AE079
:10093000F9016E9F90016F9F300D11240196F4CF45
:100940008AE491E00E94BB00B7010F2C000C880BD9
:10095000990B0E940E020E94B3008AE591E00E946A
:10096000BB000E94B300D12CC12CCE14DF0491F047
:10097000F201619171912F01072E000C880B990BE8
:100980000E940E028DE691E00E94BB00FFEFCF1A9D
:10099000DF0AEBCF0E94B30023E0C216D10409F4B2
:1009A000BCC034E0C316D10481F062E0C616D104A5
:1009B00031F5F8016081718190E080E00E947D0254
:1009C000D80112968D919C9114C0D8018D919C9163
:1009D0000E946C028BEE93E00E946C02F80164812D
:1009E0007581828193810E947D02D80116968D9136
:1009F0009C910E946C0289EE93E00E946C020FB6FB
:100A0000F8943EBE0FBE2DBE0E94F5000091D601A7
:100A10001091D7012091D8013091D901601B710B41
:100A2000820B930B653671058105910508F41FC192
:100A30000E94FC0625E630E040E050E00E94780885
:100A40006253710981099109665A7F4F072E000C84
:100A5000880B990B0E945B072BE734E14EE25FE3C2
:100A60000E94BA070E9448099B014D9B02C0215F6A
:100A70003F4FF090D501B4E0FB9E80011124075355
:100A80001E4FB901330F880B990B0E945B07F801C9
:100A9000608371838283938381E08F0D833008F0BC
:100AA00048C08093D5011091C9010091CA01F0900E
:100AB000CB01E090CC016090CD017090CE01C09050
:100AC000CF01D090D0019301A601612F702F8F2DFF
:100AD0009E2D0E94540718167CF12090D101309071
:100AE000D2014090D3015090D4019101A201612F15
:100AF000702F8F2D9E2D0E94540718160CF4BFC026
:100B00009101A201B301C6010E9454071816C4F155
:100B1000162D072DFC2CED2C43C0F801628173814A
:100B2000808191810E947D02D80114968D919C91C3
:100B300060CF1092D501B7CF9301A601612F702F1E
:100B40008F2D9E2D0E947E0987FD1FC02090D10110
:100B50003090D2014090D3015090D4019101A20174
:100B6000B301C6010E94540718167CF09101A2013E
:100B7000612F702F8F2D9E2D0E945407181684F41C
:100B8000122D032DF42CE52C0BC09301A601612F2F
:100B9000702F8F2D9E2D0E94540718160CF4B8CF7D
:100BA0000E94F5004090C3015090C4016090C501BF
:100BB0007090C601AB01BC0144195509660977095B
:100BC0008091C7019091C801B0E0A0E04817590793
:100BD0006A077B07D0F10E94F5006093C301709310
:100BE000C4018093C5019093C6018090BF0190908D
:100BF000C001A090C101B090C201612F702F8F2D54
:100C00009E2D0E944809072E000C880B990B0E940C
:100C10005B07A50194010E94DB082091BB01309184
:100C2000BC014091BD015091BE010E94BA07A501CF
:100C300094010E94DC084B015C018092BF019092FC
:100C4000C001A092C101B092C2018092DA019092DB
:100C5000DB01A092DC01B092DD010E94F5006093FF
:100C6000D6017093D7018093D8019093D90120E0E9
:100C700030E0232B09F4B2CD0E940000AFCD9301E8
:100C8000A601612F702F8F2D9E2D0E947E0987FF58
:100C90005DCF86CFCF93DF93AEEDB1E08CE390E0F4
:100CA00014969C938E93139784EF91E016969C93E1
:100CB0008E93159718969C938E93179780E991E0E1
:100CC0001A969C938E9319971B961C921B971C96B1
:100CD0001C921C971D961C921D971E961D921D928C
:100CE0001D921C92519752961C92529753961C92A9
:100CF000539784E012968C931297CFEDD1E08881C0
:100D00008F7D8860888354985C98EAE8F0E0E491ED
:100D1000F0E0EE0FFF1FE458FF4F259134915596F8
:100D20003C932E935497ECE6F0E0E4915696EC93C6
:100D30008B7E8D7F8883EBEBF1E010821182128233
:100D400013821482158216821782108611861286EB
:100D50001386158614861092D501DF91CF910895E0
:100D60008F929F92AF92BF92CF92DF92EF92FF92BB
:100D7000CF93DF93EC01688179818A819B81611532
:100D800071058105910521F464E279ED8BE597E029
:100D90002DE133EF41E050E00E94780849015A010B
:100DA0009B01AC01A7EAB1E40E9497086B017C01AA
:100DB000ACEEB4EFA50194010E94A508C60ED71EA3
:100DC000E81EF91EF7FE06C081E0C81AD108E10846
:100DD00080E8F80AC882D982EA82FB82C701B6019C
:100DE0009F77DF91CF91FF90EF90DF90CF90BF90F2
:100DF000AF909F908F9008958F929F92AF92BF92E5
:100E0000CF92DF92EF92FF92609100017091010109
:100E10008091020190910301611571058105910591
:100E200021F464E279ED8BE597E02DE133EF41E0C9
:100E300050E00E94780849015A019B01AC01A7EAE1
:100E4000B1E40E9497086B017C01ACEEB4EFA50100
:100E500094010E94A508C60ED71EE81EF91EF7FED3
:100E600006C081E0C81AD108E10880E8F80AC092FB
:100E70000001D0920101E0920201F0920301C7014A
:100E8000B6019F77FF90EF90DF90CF90BF90AF902B
:100E90009F908F900895609300017093010180935B
:100EA00002019093030108950E94960708F481E0DF
:100EB0000895E89409C097FB3EF49095809570954D
:100EC00061957F4F8F4F9F4F9923A9F0F92F96E996
:100ED000BB279395F695879577956795B795F1110B
:100EE000F8CFFAF4BB0F11F460FF1BC06F5F7F4FA8
:100EF0008F4F9F4F16C0882311F096E911C07723BA
:100F000021F09EE8872F762F05C0662371F096E8C2
:100F1000862F70E060E02AF09A95660F771F881F91
:100F2000DAF7880F9695879597F90895990F000835
:100F3000550FAA0BE0E8FEEF16161706E807F907AB
:100F4000C0F012161306E407F50798F0621B730B46
:100F5000840B950B39F40A2661F0232B242B252BC7
:100F600021F408950A2609F4A140A6958FEF811D6A
:100F7000811D08950E94CD070C943E080E94300800
:100F800038F00E94370820F0952311F00C942708C0
:100F90000C942D0811240C9472080E944F0870F3D1
:100FA000959FC1F3950F50E0551F629FF001729F0E
:100FB000BB27F00DB11D639FAA27F00DB11DAA1F1D
:100FC000649F6627B00DA11D661F829F2227B00D6A
:100FD000A11D621F739FB00DA11D621F839FA00DF5
:100FE000611D221F749F3327A00D611D231F849F45
:100FF000600D211D822F762F6A2F11249F5750409C
:101000009AF0F1F088234AF0EE0FFF1FBB1F661F16
:10101000771F881F91505040A9F79E3F510580F0DF
:101020000C9427080C9472085F3FE4F3983ED4F3C5
:10103000869577956795B795F795E7959F5FC1F783
:10104000FE2B880F911D9695879597F9089597F92E
:101050009F6780E870E060E008959FEF80EC08955E
:1010600000240A9416161706180609060895002487
:101070000A9412161306140605060895092E039401
:10108000000C11F4882352F0BB0F40F4BF2B11F475
:1010900060FF04C06F5F7F4F8F4F9F4F089557FDD4
:1010A0009058440F551F59F05F3F71F04795880FD6
:1010B00097FB991F61F09F3F79F08795089512166D
:1010C00013061406551FF2CF4695F1DF08C0161619
:1010D00017061806991FF1CF8695710561050894CA
:1010E0000895E894BB2766277727CB0197F90895E1
:1010F000052E97FB1EF400940E948F0857FD07D021
:101100000E94AA0807FC03D04EF40C948F08509557
:101110004095309521953F4F4F4F5F4F08959095E3
:101120008095709561957F4F8F4F9F4F08950E94D6
:10113000CC08A59F900DB49F900DA49F800D911D8C
:1011400011240895B7FF0C9497080E949708821BFA
:10115000930B0895A1E21A2EAA1BBB1BFD010DC023
:10116000AA1FBB1FEE1FFF1FA217B307E407F50757
:1011700020F0A21BB30BE40BF50B661F771F881F33
:10118000991F1A9469F760957095809590959B01C9
:10119000AC01BD01CF010895A29FB001B39FC00172
:1011A000A39F700D811D1124911DB29F700D811D93
:1011B0001124911D08955058BB27AA270E94F308B7
:1011C0000C943E080E94300838F00E94370820F046
:1011D00039F49F3F19F426F40C942D080EF4E09591
:1011E000E7FB0C942708E92F0E944F0858F3BA1721
:1011F000620773078407950720F079F4A6F50C942D
:1012000071080EF4E0950B2EBA2FA02D0B01B90139
:1012100090010C01CA01A0011124FF27591B99F06C
:10122000593F50F4503E68F11A16F040A22F232F78
:10123000342F4427585FF3CF469537952795A795C8
:10124000F0405395C9F77EF41F16BA0B620B730B6F
:10125000840BBAF09150A1F0FF0FBB1F661F771FE0
:10126000881FC2F70EC0BA0F621F731F841F48F495
:10127000879577956795B795F7959E3F08F0B0CF1E
:101280009395880F08F09927EE0F97958795089505
:101290000E944F096894B1110C94720808950E943D
:1012A000570888F09F5798F0B92F9927B751B0F099
:1012B000E1F0660F771F881F991F1AF0BA95C9F7DA
:1012C00014C0B13091F00E947108B1E008950C94FF
:1012D0007108672F782F8827B85F39F0B93FCCF3B2
:1012E000869577956795B395D9F73EF49095809557
:1012F000709561957F4F8F4F9F4F08950E9496077D
:1013000008F48FEF089597FB072E16F4009407D08A
:1013100077FD09D00E94970907FC05D03EF490950F
:1013200081959F4F0895709561957F4F0895AA1BF1
:10133000BB1B51E107C0AA1FBB1FA617B70710F0C0
:10134000A61BB70B881F991F5A95A9F780959095F2
:10135000BC01CD010895EE0FFF1F0590F491E02D23
:061360000994F894FFCF90
:1013660001000000506C6179696E672066696C65E2
:101376002077697468206E756D6265722000576506
:101386006C6C636F6D652E20436F6E74726F6C6C40
:1013960065722069732072656164790053706561B6
:1013A6006B2073746172746564004E756D206F6690
:1013B600206469676974733A2000446967697473C5
:1013C600206E6F7720636F6E7461696E3A2000003D
:00000001FF
